{
  "contractName": "KittyContract",
  "abi": [
    {
      "constant": true,
      "inputs": [
        {
          "name": "",
          "type": "uint256"
        }
      ],
      "name": "kitties",
      "outputs": [
        {
          "name": "isGestating",
          "type": "bool"
        },
        {
          "name": "isReady",
          "type": "bool"
        },
        {
          "name": "cooldownIndex",
          "type": "uint256"
        },
        {
          "name": "nextActionAt",
          "type": "uint256"
        },
        {
          "name": "siringWithId",
          "type": "uint256"
        },
        {
          "name": "birthTime",
          "type": "uint256"
        },
        {
          "name": "matronId",
          "type": "uint256"
        },
        {
          "name": "sireId",
          "type": "uint256"
        },
        {
          "name": "generation",
          "type": "uint256"
        },
        {
          "name": "genes",
          "type": "uint256"
        }
      ],
      "payable": false,
      "stateMutability": "view",
      "type": "function"
    },
    {
      "constant": false,
      "inputs": [
        {
          "name": "_genes",
          "type": "uint256"
        }
      ],
      "name": "createKitty",
      "outputs": [
        {
          "name": "",
          "type": "uint256"
        }
      ],
      "payable": false,
      "stateMutability": "nonpayable",
      "type": "function"
    },
    {
      "constant": true,
      "inputs": [
        {
          "name": "_id",
          "type": "uint256"
        }
      ],
      "name": "getKitty",
      "outputs": [
        {
          "name": "isGestating",
          "type": "bool"
        },
        {
          "name": "isReady",
          "type": "bool"
        },
        {
          "name": "cooldownIndex",
          "type": "uint256"
        },
        {
          "name": "nextActionAt",
          "type": "uint256"
        },
        {
          "name": "siringWithId",
          "type": "uint256"
        },
        {
          "name": "birthTime",
          "type": "uint256"
        },
        {
          "name": "matronId",
          "type": "uint256"
        },
        {
          "name": "sireId",
          "type": "uint256"
        },
        {
          "name": "generation",
          "type": "uint256"
        },
        {
          "name": "genes",
          "type": "uint256"
        }
      ],
      "payable": false,
      "stateMutability": "view",
      "type": "function"
    }
  ],
  "bytecode": "0x608060405234801561001057600080fd5b5061047e806100206000396000f300608060405260043610610057576000357c0100000000000000000000000000000000000000000000000000000000900463ffffffff1680638cc51eda1461005c578063b0634664146100e4578063e98b7f4d14610125575b600080fd5b34801561006857600080fd5b50610087600480360381019080803590602001909291905050506101ad565b604051808b1515151581526020018a1515151581526020018981526020018881526020018781526020018681526020018581526020018481526020018381526020018281526020019a505050505050505050505060405180910390f35b3480156100f057600080fd5b5061010f6004803603810190808035906020019092919050505061022a565b6040518082815260200191505060405180910390f35b34801561013157600080fd5b506101506004803603810190808035906020019092919050505061035d565b604051808b1515151581526020018a1515151581526020018981526020018881526020018781526020018681526020018581526020018481526020018381526020018281526020019a505050505050505050505060405180910390f35b6000818154811015156101bc57fe5b90600052602060002090600902016000915090508060000160009054906101000a900460ff16908060000160019054906101000a900460ff1690806001015490806002015490806003015490806004015490806005015490806006015490806007015490806008015490508a565b60006102346103fa565b610140604051908101604052806000151581526020016001151581526020016000815260200160008152602001600081526020014281526020016000815260200160008152602001600081526020018481525090506000819080600181540180825580915050906001820390600052602060002090600902016000909192909190915060008201518160000160006101000a81548160ff02191690831515021790555060208201518160000160016101000a81548160ff02191690831515021790555060408201518160010155606082015181600201556080820151816003015560a0820151816004015560c0820151816005015560e0820151816006015561010082015181600701556101208201518160080155505050600160008054905003915050919050565b6000806000806000806000806000806000808c81548110151561037c57fe5b906000526020600020906009020190508060000160009054906101000a900460ff168160000160019054906101000a900460ff16826001015483600201548460030154856004015486600501548760060154886007015489600801549a509a509a509a509a509a509a509a509a509a50509193959799509193959799565b61014060405190810160405280600015158152602001600015158152602001600081526020016000815260200160008152602001600081526020016000815260200160008152602001600081526020016000815250905600a165627a7a72305820fa5e62f08c625cebdade353d69844db3b958230e88d3cb08b114b12d87339cc90029",
  "source": "pragma solidity ^0.4.25;\r\n\r\ncontract KittyContract {\r\n  struct Kitty {\r\n    bool isGestating;\r\n    bool isReady;\r\n    uint256 cooldownIndex;\r\n    uint256 nextActionAt;\r\n    uint256 siringWithId;\r\n    uint256 birthTime;\r\n    uint256 matronId;\r\n    uint256 sireId;\r\n    uint256 generation;\r\n    uint256 genes;\r\n  }\r\n\r\n  Kitty[] public kitties;\r\n\r\n  // simple creator for local testing\r\n  function createKitty(uint256 _genes) public returns (uint256) {\r\n    Kitty memory _kitty = Kitty({\r\n      isGestating: false,\r\n      isReady: true,\r\n      cooldownIndex: 0,\r\n      nextActionAt: 0,\r\n      siringWithId: 0,\r\n      birthTime: now,\r\n      matronId: 0,\r\n      sireId: 0,\r\n      generation: 0,\r\n      genes: _genes\r\n    });\r\n    kitties.push(_kitty);\r\n    return kitties.length - 1;\r\n  }\r\n\r\n  function getKitty(uint256 _id) external view returns (\r\n    bool isGestating,\r\n    bool isReady,\r\n    uint256 cooldownIndex,\r\n    uint256 nextActionAt,\r\n    uint256 siringWithId,\r\n    uint256 birthTime,\r\n    uint256 matronId,\r\n    uint256 sireId,\r\n    uint256 generation,\r\n    uint256 genes\r\n  ) {\r\n    Kitty storage k = kitties[_id];\r\n    return (\r\n      k.isGestating,\r\n      k.isReady,\r\n      k.cooldownIndex,\r\n      k.nextActionAt,\r\n      k.siringWithId,\r\n      k.birthTime,\r\n      k.matronId,\r\n      k.sireId,\r\n      k.generation,\r\n      k.genes\r\n    );\r\n  }\r\n}\r\n",
  "sourcePath": "C:\\Users\\amit\\Desktop\\CPSC-559\\Cryptozombie demo package\\contracts\\Kitty.sol",
  "compiler": {
    "name": "solc",
    "version": "0.4.25+commit.59dbf8f1.Emscripten.clang"
  },
  "schemaVersion": "3.4.4",
  "updatedAt": "2025-10-16T03:46:11.742Z",
  "networkType": "ethereum",
  "devdoc": {
    "methods": {}
  },
  "userdoc": {
    "methods": {}
  }
}