{
  "contractName": "KittyCore",
  "abi": [
    {
      "constant": true,
      "inputs": [
        {
          "name": "",
          "type": "uint256"
        }
      ],
      "name": "kittyToOwner",
      "outputs": [
        {
          "name": "",
          "type": "address"
        }
      ],
      "payable": false,
      "stateMutability": "view",
      "type": "function"
    },
    {
      "constant": true,
      "inputs": [
        {
          "name": "",
          "type": "uint256"
        }
      ],
      "name": "kitties",
      "outputs": [
        {
          "name": "genes",
          "type": "uint256"
        },
        {
          "name": "birthTime",
          "type": "uint64"
        },
        {
          "name": "generation",
          "type": "uint32"
        }
      ],
      "payable": false,
      "stateMutability": "view",
      "type": "function"
    },
    {
      "constant": false,
      "inputs": [
        {
          "name": "_genes",
          "type": "uint256"
        }
      ],
      "name": "createTestKitty",
      "outputs": [
        {
          "name": "",
          "type": "uint256"
        }
      ],
      "payable": false,
      "stateMutability": "nonpayable",
      "type": "function"
    },
    {
      "constant": true,
      "inputs": [
        {
          "name": "_id",
          "type": "uint256"
        }
      ],
      "name": "getKitty",
      "outputs": [
        {
          "name": "genes",
          "type": "uint256"
        },
        {
          "name": "birthTime",
          "type": "uint64"
        },
        {
          "name": "generation",
          "type": "uint32"
        }
      ],
      "payable": false,
      "stateMutability": "view",
      "type": "function"
    }
  ],
  "bytecode": "0x608060405234801561001057600080fd5b50610473806100206000396000f300608060405260043610610062576000357c0100000000000000000000000000000000000000000000000000000000900463ffffffff16806387c74868146100675780638cc51eda146100d4578063ca5d420814610143578063e98b7f4d14610184575b600080fd5b34801561007357600080fd5b50610092600480360381019080803590602001909291905050506101f3565b604051808273ffffffffffffffffffffffffffffffffffffffff1673ffffffffffffffffffffffffffffffffffffffff16815260200191505060405180910390f35b3480156100e057600080fd5b506100ff60048036038101908080359060200190929190505050610226565b604051808481526020018367ffffffffffffffff1667ffffffffffffffff1681526020018263ffffffff1663ffffffff168152602001935050505060405180910390f35b34801561014f57600080fd5b5061016e60048036038101908080359060200190929190505050610283565b6040518082815260200191505060405180910390f35b34801561019057600080fd5b506101af600480360381019080803590602001909291905050506103af565b604051808481526020018367ffffffffffffffff1667ffffffffffffffff1681526020018263ffffffff1663ffffffff168152602001935050505060405180910390f35b60016020528060005260406000206000915054906101000a900473ffffffffffffffffffffffffffffffffffffffff1681565b60008181548110151561023557fe5b90600052602060002090600202016000915090508060000154908060010160009054906101000a900467ffffffffffffffff16908060010160089054906101000a900463ffffffff16905083565b600061028d610415565b60006060604051908101604052808581526020014267ffffffffffffffff168152602001600163ffffffff1681525091506001600083908060018154018082558091505090600182039060005260206000209060020201600090919290919091506000820151816000015560208201518160010160006101000a81548167ffffffffffffffff021916908367ffffffffffffffff16021790555060408201518160010160086101000a81548163ffffffff021916908363ffffffff1602179055505050039050336001600083815260200190815260200160002060006101000a81548173ffffffffffffffffffffffffffffffffffffffff021916908373ffffffffffffffffffffffffffffffffffffffff1602179055508092505050919050565b6000806000806000858154811015156103c457fe5b9060005260206000209060020201905080600001548160010160009054906101000a900467ffffffffffffffff168260010160089054906101000a900463ffffffff16935093509350509193909250565b60606040519081016040528060008152602001600067ffffffffffffffff168152602001600063ffffffff16815250905600a165627a7a72305820384a0dc8ebe24b6c94e123d44577a67d4a92e9e43ff8c4da8f80a20df3e639bd0029",
  "source": "pragma solidity ^0.4.25;\r\n\r\ncontract KittyCore {\r\n    struct Kitty {\r\n        uint256 genes;\r\n        uint64 birthTime;\r\n        uint32 generation;\r\n    }\r\n\r\n    Kitty[] public kitties;\r\n    mapping (uint256 => address) public kittyToOwner;\r\n\r\n    function createTestKitty(uint256 _genes) external returns (uint) {\r\n        Kitty memory _kitty = Kitty({\r\n            genes: _genes,\r\n            birthTime: uint64(now),\r\n            generation: 1\r\n        });\r\n        uint256 newKittyId = kitties.push(_kitty) - 1;\r\n        kittyToOwner[newKittyId] = msg.sender;\r\n        return newKittyId;\r\n    }\r\n\r\n    function getKitty(uint256 _id) external view returns (\r\n        uint256 genes,\r\n        uint64 birthTime,\r\n        uint32 generation\r\n    ) {\r\n        Kitty storage kitty = kitties[_id];\r\n        return (\r\n            kitty.genes,\r\n            kitty.birthTime,\r\n            kitty.generation\r\n        );\r\n    }\r\n}",
  "sourcePath": "C:\\Users\\amit\\Desktop\\CPSC-559\\Cryptozombie demo package\\contracts\\KittyCore.sol",
  "compiler": {
    "name": "solc",
    "version": "0.4.25+commit.59dbf8f1.Emscripten.clang"
  },
  "schemaVersion": "3.4.4",
  "updatedAt": "2025-10-16T03:46:12.548Z",
  "networkType": "ethereum",
  "devdoc": {
    "methods": {}
  },
  "userdoc": {
    "methods": {}
  }
}